:020000040800F2
:10000000000002204D200008D51D0008D71D000863
:10001000D91D0008DB1D0008DD1D000800000000E0
:100020000000000000000000000000000146000881
:10003000DF1D000800000000A1460008434300083F
:100040009D2000089D2000089D2000089D2000089C
:100050009D2000089D2000089D2000089D2000088C
:100060009D2000089D2000089D2000089D2000087C
:100070009D2000089D2000089D2000089D2000086C
:100080009D2000089D2000089D2000089D2000085C
:10009000E11D00089D2000089D2000089D2000080B
:1000A0009D2000089D2000089D2000089D2000083C
:1000B000F11D00089D2000089D2000089D200008DB
:1000C0009D2000089D2000089D2000089D2000081C
:1000D0009D200008011E00089D2000089D200008AA
:1000E0009D2000089D2000089D2000089D200008FC
:1000F0009D2000089D2000089D2000089D200008EC
:100100009D2000089D2000089D2000089D200008DB
:100110009D2000089D2000089D2000089D200008CB
:100120009D2000089D200008191E00089D20000841
:100130009D20000800000000000000009D20000835
:10014000291E00089D2000089D2000089D20000811
:100150009D2000089D200008391E00089D200008F1
:100160009D2000089D2000089D2000089D2000087B
:100170009D2000089D2000080000000000000000F5
:080180009D2000089D200008ED
:1001C00053B94AB9002908BF00281CBF4FF0FF31BE
:1001D0004FF0FF3000F074B9ADF1080C6DE904CEBA
:1001E00000F006F8DDF804E0DDE9022304B0704712
:1001F0002DE9F047089D04468E46002B4DD18A42DA
:10020000944669D9B2FA82F252B101FA02F3C2F10C
:10021000200120FA01F10CFA02FC41EA030E94409D
:100220004FEA1C48210CBEFBF8F61FFA8CF708FBBE
:1002300016E341EA034306FB07F199420AD91CEB96
:10024000030306F1FF3080F01F81994240F21C81C8
:10025000023E63445B1AA4B2B3FBF8F008FB103310
:1002600044EA034400FB07F7A7420AD91CEB040445
:1002700000F1FF3380F00A81A74240F20781644415
:10028000023840EA0640E41B00261DB1D44000239A
:10029000C5E900433146BDE8F0878B4209D9002DFE
:1002A00000F0EF800026C5E9000130463146BDE888
:1002B000F087B3FA83F6002E4AD18B4202D38242F2
:1002C00000F2F980841A61EB030301209E46002DA1
:1002D000E0D0C5E9004EDDE702B9FFDEB2FA82F2F6
:1002E000002A40F09280A1EB0C014FEA1C471FFA54
:1002F0008CFE0126200CB1FBF7F307FB131140EA3B
:1003000001410EFB03F0884208D91CEB010103F107
:10031000FF3802D2884200F2CB804346091AA4B2C9
:10032000B1FBF7F007FB101144EA01440EFB00FE9D
:10033000A64508D91CEB040400F1FF3102D2A64502
:1003400000F2BB800846A4EB0E0440EA03409CE7A1
:10035000C6F12007B34022FA07FC4CEA030C20FA4E
:1003600007F401FA06F31C43F9404FEA1C4900FA6E
:1003700006F3B1FBF9F8200C1FFA8CFE09FB1811EB
:1003800040EA014108FB0EF0884202FA06F20BD95E
:100390001CEB010108F1FF3A80F08880884240F2AE
:1003A0008580A8F102086144091AA4B2B1FBF9F0F2
:1003B00009FB101144EA014100FB0EFE8E4508D9ED
:1003C0001CEB010100F1FF346CD28E456AD9023872
:1003D000614440EA0840A0FB0294A1EB0E01A14257
:1003E000C846A64656D353D05DB1B3EB080261EBC5
:1003F0000E0101FA07F722FA06F3F1401F43C5E99F
:10040000007100263146BDE8F087C2F12003D840D4
:100410000CFA02FC21FA03F3914001434FEA1C4716
:100420001FFA8CFEB3FBF7F007FB10360B0C43EA08
:10043000064300FB0EF69E4204FA02F408D91CEBB8
:10044000030300F1FF382FD29E422DD902386344B6
:100450009B1B89B2B3FBF7F607FB163341EA034156
:1004600006FB0EF38B4208D91CEB010106F1FF38A5
:1004700016D28B4214D9023E6144C91A46EA00469C
:1004800038E72E46284605E70646E3E61846F8E62E
:100490004B45A9D2B9EB020864EB0C0E0138A3E777
:1004A0004646EAE7204694E74046D1E7D0467BE758
:1004B000023B614432E7304609E76444023842E7D0
:1004C000704700BF844641EA000313F003036DD177
:1004D000403A41D351F8043B40F8043B51F8043B07
:1004E00040F8043B51F8043B40F8043B51F8043B0E
:1004F00040F8043B51F8043B40F8043B51F8043BFE
:1005000040F8043B51F8043B40F8043B51F8043BED
:1005100040F8043B51F8043B40F8043B51F8043BDD
:1005200040F8043B51F8043B40F8043B51F8043BCD
:1005300040F8043B51F8043B40F8043B51F8043BBD
:1005400040F8043B51F8043B40F8043B51F8043BAD
:1005500040F8043B403ABDD2303211D351F8043B4D
:1005600040F8043B51F8043B40F8043B51F8043B8D
:1005700040F8043B51F8043B40F8043B103AEDD2FC
:100580000C3205D351F8043B40F8043B043AF9D24D
:10059000043208D0D2071CBF11F8013B00F8013B20
:1005A00001D30B8803806046704700BF082A13D32D
:1005B0008B078DD010F003038AD0C3F10403D21A45
:1005C000DB071CBF11F8013B00F8013B80D331F879
:1005D000023B20F8023B7BE7043AD9D3013A11F8F9
:1005E000013B00F8013BF9D20B7803704B78437064
:1005F0008B788370604670470000000000000000A8
:1006000090F800F06DE9024520F007016FF0000C52
:1006100010F0070491F820F040F049804FF00004FA
:100620006FF00700D1E9002391F840F000F10800D5
:1006300082FA4CF2A4FA8CF283FA4CF3A2FA8CF30D
:100640004BBBD1E9022382FA4CF200F10800A4FA74
:100650008CF283FA4CF3A2FA8CF3E3B9D1E90423C8
:1006600082FA4CF200F10800A4FA8CF283FA4CF3FF
:10067000A2FA8CF37BB9D1E9062301F1200182FAB9
:100680004CF200F10800A4FA8CF283FA4CF3A2FABF
:100690008CF3002BC6D0002A04BF04301A4612BACD
:1006A000B2FA82F2FDE8024500EBD2007047D1E9D0
:1006B000002304F00305C4F100004FEAC50514F05F
:1006C000040F91F840F00CFA05F562EA05021CBF30
:1006D00063EA050362464FF00004A9E7000000004A
:1006E00001F0FF01102A2BDB10F0070F08D010F8E3
:1006F000013B013A8B422DD010F0070F42B3F6D1E7
:10070000F0B441EA012141EA014122F007047FF0FF
:1007100000070023F0E80256083C85EA010586EA56
:10072000010685FA47F5A3FA87F586FA47F6A5FA92
:1007300087F68EB9EED1F0BC01F0FF0102F007029E
:1007400032B110F8013B013A83EA010313B1F8D149
:100750000020704701387047002D06BF354603382A
:10076000073815F0010F07D1013015F4807F02BF63
:10077000013015F4C03F0130F0BC0138704700BFB4
:1007800081F0004102E000BF83F0004330B54FEA42
:1007900041044FEA430594EA050F08BF90EA020FAF
:1007A0001FBF54EA000C55EA020C7FEA645C7FEA42
:1007B000655C00F0E2804FEA5454D4EB5555B8BF65
:1007C0006D420CDD2C4480EA020281EA030382EAD6
:1007D000000083EA010180EA020281EA0303362D68
:1007E00088BF30BD11F0004F4FEA01314FF4801C3B
:1007F0004CEA113102D0404261EB410113F0004F4D
:100800004FEA03334CEA133302D0524263EB430303
:1008100094EA050F00F0A780A4F10104D5F1200EA1
:100820000DDB02FA0EFC22FA05F2801841F10001FC
:1008300003FA0EF2801843FA05F359410EE0A5F1D0
:1008400020050EF1200E012A03FA0EFC28BF4CF001
:10085000020C43FA05F3C01851EBE37101F00045B7
:1008600007D54FF0000EDCF1000C7EEB00006EEBC4
:100870000101B1F5801F1BD3B1F5001F0CD349084E
:100880005FEA30004FEA3C0C04F101044FEA4452A5
:1008900012F5800F80F09A80BCF1004F08BF5FEA2C
:1008A000500C50F1000041EB045141EA050130BD0C
:1008B0005FEA4C0C404141EB0101013C28BFB1F51E
:1008C000801FE9D291F0000F04BF01460020B1FA69
:1008D00081F308BF2033A3F10B03B3F120020CDA3C
:1008E0000C3208DD02F1140CC2F10C0201FA0CF01A
:1008F00021FA02F10CE002F11402D8BFC2F1200C7F
:1009000001FA02F120FA0CFCDCBF41EA0C01904034
:10091000E41AA2BF01EB0451294330BD6FEA04047D
:100920001F3C1CDA0C340EDC04F11404C4F1200268
:1009300020FA04F001FA02F340EA030021FA04F37A
:1009400045EA030130BDC4F10C04C4F1200220FAD1
:1009500002F001FA04F340EA0300294630BD21FA0F
:1009600004F0294630BD94F0000F83F4801306BFD5
:1009700081F480110134013D4EE77FEA645C18BFC9
:100980007FEA655C29D094EA050F08BF90EA020F60
:1009900005D054EA000C04BF1946104630BD91EA58
:1009A000030F1EBF0021002030BD5FEA545C05D15B
:1009B0004000494128BF41F0004130BD14F580049A
:1009C0003CBF01F5801130BD01F0004545F0FE410E
:1009D00041F470014FF0000030BD7FEA645C1ABF43
:1009E000194610467FEA655C1CBF0B46024650EA7A
:1009F000013406BF52EA033591EA030F41F40021A6
:100A000030BD00BF90F0000F04BF0021704730B52B
:100A10004FF4806404F132044FF000054FF0000100
:100A200050E700BF90F0000F04BF0021704730B5C1
:100A30004FF4806404F1320410F0004548BF404296
:100A40004FF000013EE700BF42004FEAE2014FEAEB
:100A500031014FEA02701FBF12F07F4393F07F4FC6
:100A600081F06051704732F07F4208BF704793F0C9
:100A70007F4F04BF41F40021704730B54FF46074DC
:100A800001F0004521F000411CE700BF50EA0102DF
:100A900008BF704730B54FF000050AE050EA010288
:100AA00008BF704730B511F0004502D5404261EBF8
:100AB00041014FF4806404F132045FEA915C3FF439
:100AC000D8AE4FF003025FEADC0C18BF03325FEAD6
:100AD000DC0C18BF033202EBDC02C2F1200300FA87
:100AE00003FC20FA02F001FA03FE40EA0E0021FAAC
:100AF00002F11444BDE600BF70B54FF0FF0C4CF49A
:100B0000E06C1CEA11541DBF1CEA135594EA0C0F4B
:100B100095EA0C0F00F0DEF82C4481EA030621EA86
:100B20004C5123EA4C5350EA013518BF52EA0335C1
:100B300041F4801143F4801338D0A0FB02CE4FF073
:100B40000005E1FB02E506F00042E0FB03E54FF0A3
:100B50000006E1FB03569CF0000F18BF4EF0010E9B
:100B6000A4F1FF04B6F5007F64F5407404D25FEA97
:100B70004E0E6D4146EB060642EAC62141EA55514A
:100B80004FEAC52040EA5E504FEACE2EB4F1FD0C8C
:100B900088BFBCF5E06F1ED8BEF1004F08BF5FEA0A
:100BA000500E50F1000041EB045170BD06F00046BC
:100BB00046EA010140EA020081EA0301B4EB5C0469
:100BC000C2BFD4EB0C0541EA045170BD41F4801161
:100BD0004FF0000E013C00F3AB8014F1360FDEBF86
:100BE000002001F0004170BDC4F10004203C35DA62
:100BF0000C341BDC04F11404C4F1200500FA05F3E5
:100C000020FA04F001FA05F240EA020001F0004285
:100C100021F0004110EBD37021FA04F642EB0601FB
:100C20005EEA430E08BF20EAD37070BDC4F10C0425
:100C3000C4F1200500FA04F320FA05F001FA04F2E9
:100C400040EA020001F0004110EBD37041F10001D5
:100C50005EEA430E08BF20EAD37070BDC4F12005E0
:100C600000FA05F24EEA020E20FA04F301FA05F248
:100C700043EA020321FA04F001F0004121FA04F2F0
:100C800020EA020000EBD3705EEA430E08BF20EAC0
:100C9000D37070BD94F0000F0FD101F000464000FA
:100CA00041EB010111F4801F08BF013CF7D041EA7C
:100CB000060195F0000F18BF704703F00046520080
:100CC00043EB030313F4801F08BF013DF7D043EA51
:100CD0000603704794EA0C0F0CEA135518BF95EA07
:100CE0000C0F0CD050EA410618BF52EA4306D1D18E
:100CF00081EA030101F000414FF0000070BD50EAAD
:100D0000410606BF1046194652EA430619D094EA36
:100D10000C0F02D150EA013613D195EA0C0F05D120
:100D200052EA03361CBF104619460AD181EA030174
:100D300001F0004141F0FE4141F470014FF000002C
:100D400070BD41F0FE4141F4780170BD70B54FF0C7
:100D5000FF0C4CF4E06C1CEA11541DBF1CEA135547
:100D600094EA0C0F95EA0C0F00F0A7F8A4EB050429
:100D700081EA030E52EA03354FEA013100F0888020
:100D80004FEA03334FF0805545EA131343EA1263E9
:100D90004FEA022245EA111545EA10654FEA00269E
:100DA0000EF000419D4208BF964244F1FD0404F557
:100DB000407402D25B084FEA3202B61A65EB0305B3
:100DC0005B084FEA32024FF480104FF4002CB6EB70
:100DD000020E75EB030E22BFB61A754640EA0C00F0
:100DE0005B084FEA3202B6EB020E75EB030E22BF30
:100DF000B61A754640EA5C005B084FEA3202B6EB71
:100E0000020E75EB030E22BFB61A754640EA9C002F
:100E10005B084FEA3202B6EB020E75EB030E22BFFF
:100E2000B61A754640EADC0055EA060E18D04FEABD
:100E3000051545EA16754FEA06164FEAC30343EA5D
:100E400052734FEAC2025FEA1C1CC0D111F4801F2A
:100E50000BD141EA00014FF000004FF0004CB6E723
:100E600011F4801F04BF01430020B4F1FD0C88BFC2
:100E7000BCF5E06F3FF6AFAEB5EB030C04BFB6EBCD
:100E8000020C5FEA500C50F1000041EB045170BDC0
:100E90000EF0004E4EEA113114EB5C04C2BFD4EBED
:100EA0000C0541EA045170BD41F480114FF0000E71
:100EB000013C90E645EA060E8DE60CEA135594EAED
:100EC0000C0F08BF95EA0C0F3FF43BAF94EA0C0FF0
:100ED0000AD150EA01347FF434AF95EA0C0F7FF465
:100EE00025AF104619462CE795EA0C0F06D152EAB9
:100EF00003353FF4FDAE1046194622E750EA41069D
:100F000018BF52EA43067FF4C5AE50EA41047FF4AD
:100F10000DAF52EA43057FF4EBAE12E74FF0FF3C12
:100F200006E000BF4FF0010C02E000BF4FF0010CE3
:100F30004DF804CD4FEA410C7FEA6C5C4FEA430C5C
:100F400018BF7FEA6C5C1BD001B050EA410C0CBFAB
:100F500052EA430C91EA030F02BF90EA020F00200D
:100F6000704710F1000F91EA030F58BF994208BF74
:100F700090422CBFD8176FEAE37040F00100704731
:100F80004FEA410C7FEA6C5C02D150EA013C07D188
:100F90004FEA430C7FEA6C5CD6D152EA033CD3D0D3
:100FA0005DF8040B704700BF8446104662468C46CD
:100FB0001946634600E000BF01B5FFF7B7FF002800
:100FC00048BF10F1000F01BD4DF808EDFFF7F4FF29
:100FD0000CBF012000205DF808FB00BF4DF808EDB4
:100FE000FFF7EAFF34BF012000205DF808FB00BFD7
:100FF0004DF808EDFFF7E0FF94BF012000205DF8F9
:1010000008FB00BF4DF808EDFFF7CEFF94BF0120AD
:1010100000205DF808FB00BF4DF808EDFFF7C4FFA6
:1010200034BF012000205DF808FB00BF4FEA410CEF
:101030007FEA6C5C02D150EA013C0AD14FEA430CD2
:101040007FEA6C5C02D152EA033C02D14FF000000F
:1010500070474FF0010070474FEA410212F500124D
:1010600015D211D56FF47873B3EB625212D94FEAEF
:10107000C12343F0004343EA505311F0004F23FAD9
:1010800002F018BF404270474FF00000704750EA2E
:10109000013005D111F0004008BF6FF000407047EB
:1010A0004FF00000704700BF4A0011D212F5001245
:1010B00011D20DD56FF47873B3EB62520ED44FEAB0
:1010C000C12343F0004343EA505323FA02F0704730
:1010D0004FF00000704750EA013002D14FF0FF306E
:1010E00070474FF0000070474FEA4102B2F1E04311
:1010F00024BFB3F5001CDCF1FE5C0DD901F0004CFF
:101100004FEAC0024CEA5070B2F1004F40EB83004E
:1011100008BF20F00100704711F0804F21D113F17A
:101120003872BCBF01F00040704741F480114FEAB3
:101130005252C2F11802C2F1200C10FA0CF320FA3C
:1011400002F018BF40F001004FEAC1234FEAD32359
:1011500003FA0CFC40EA0C0023FA02F34FEA4303C3
:10116000CCE77FEA625307D150EA01331EBF4FF04C
:10117000FE4040F44000704701F0004040F0FE4067
:1011800040F40000704700BF38B500220023044639
:101190000D46FFF723FF28B920462946BDE8384011
:1011A00000F00AB8204605F1004100F005F8404281
:1011B00061EB410138BD00BFD0B50C4B00220646A3
:1011C0000F46FFF799FCFFF76FFF0446FFF71AFC85
:1011D000074B0022FFF790FC02460B46304639468B
:1011E000FFF7D2FAFFF760FF2146D0BD0000F03DC7
:1011F0000000F04170B52DED028B012000F072FA75
:1012000007EE900AF8EEE77A9FED377A67EE877A75
:101210009FED367A87EE870A354C84ED000A00F0A0
:10122000E9F884ED000A012000F03AFA314D2880F7
:10123000314E94ED000A304600F0BEFA9FED2F8A41
:101240009FED2F1AF0EE480A94ED000A304600F0A8
:1012500008FB86ED080A2B4C204600F09DFAB5F9F4
:10126000003000EE103AB8EEC00A204600F0A4FAB2
:10127000B5F9003000EE103A9FED231AF0EE480A5F
:10128000B8EEC00A204600F0ECFA84ED080ABDEE84
:10129000C00A00231A46194610EE100A00B200F0E8
:1012A000DDF81A4B1B68022B05DC0133174A13606B
:1012B000BDEC028B70BD154B00221A600C4BD3EDB8
:1012C000007AFDEEE77A0C4B93ED037ABDEEC77A18
:1012D000084BB3F9002017EE103A19B217EE903A06
:1012E00018B200F0E3F8E3E70000B44300F8FF456C
:1012F000C0090020C8090020405D0020CDCCCC3DB5
:1013000000009643945D002000004843C40900207B
:1013100000B58BB00023069301220792009301933E
:1013200002930393049303680C4A93420BD00C4A34
:1013300093420BD001230893694600F097FF40B910
:101340000BB05DF804FB00230593F3E70E23059330
:10135000F0E7044804F09EFEF2E700BF006400409E
:1013600000680040A0DE000810B5104C2046FFF7D2
:10137000CFFF204601F016F82268536943F00203BC
:1013800053610221204601F065F9094C2046FFF720
:10139000BFFF204601F006F82268536943F00203BC
:1013A00053610221204601F055F910BD3C0A00208E
:1013B000640A002070B50468A36813F0806F09D137
:1013C000A36813F0006F07D1A36813F0805F0ED0FD
:1013D000022302E0002300E001231D4618331B0115
:1013E0000026E6506B4601F00BF8284670BDFF253D
:1013F000FBE70000144BD3ED007A70EE677A9FEDA7
:10140000137AF4EEC77AF1EE10FA03DD104A13688E
:10141000013B13609FED0F7AF4EEC77AF1EE10FAFC
:1014200003D50B4A136801331360094BD3ED007ADF
:10143000F8EEE77A9FED087A67EE877A024B83ED44
:10144000000A37EE800A70472C0A002000009643FD
:10145000340A0020000096C30000B44310B588B0E1
:101460004FF4007402940024049405940824069414
:1014700040FA04F48DF800408DF8010008128DF850
:1014800002008DF8031011128DF804108DF805205C
:101490001A128DF806208DF807306A4602A9024814
:1014A000FFF788FF08B010BD3C0A002000B589B0E6
:1014B00040F2064302930023049305930623069308
:1014C00003128DF800308DF801000B128DF80230F8
:1014D0008DF8031013128DF804308DF805206A463C
:1014E00002A90348FFF766FF09B05DF804FB00BFDF
:1014F000640A002010B58AB0044608AB01AA002196
:1015000000F0F3FF23685E4A934205D05D4A9342A0
:1015100000F09C800AB010BD0028F7D1019A40F27B
:1015200001218A422CD040F202218A424AD040F264
:1015300003218A4268D0B2F5017FE7D1524B0122E4
:101540005A829DF820109DF8212042EA01221A803B
:101550009DF822109DF8232042EA01225A809DF82E
:1015600024109DF8252042EA01229A809DF8262029
:101570009A719DF82720DA711A8901321A81C9E718
:10158000424B01225A829DF820109DF8212042EA08
:1015900001221A809DF822109DF8232042EA0122A0
:1015A0005A809DF824109DF8252042EA01229A8055
:1015B0009DF826209A719DF82720DA711A89013248
:1015C0001A81A7E7324B01225A829DF820109DF81C
:1015D000212042EA01221A809DF822109DF8232042
:1015E00042EA01225A809DF824109DF8252042EA03
:1015F00001229A809DF826209A719DF82720DA71A1
:101600001A8901321A8185E7224B01225A829DF8FC
:1016100020109DF8212042EA01221A809DF8221014
:101620009DF8232042EA01225A809DF824109DF85B
:10163000252042EA01229A809DF826209A719DF881
:101640002720DA711A8901321A8163E700287FF4B2
:1016500061AF019A40F205439A427FF45BAF9DF877
:1016600020209DF8213043EA02230B4A138007EE25
:10167000903AB8EE670A094800F091F84AE700BFCF
:101680000064004000680040140A0020CC090020DB
:10169000E4090020FC090020300A0020405D002001
:1016A0000138032813D8DFE800F002060A0E094BC0
:1016B000B3F902007047084BB3F902007047074BBB
:1016C000B3F902007047064BB3F9020070470020DF
:1016D000704700BFCC090020E4090020FC0900206D
:1016E000140A0020013803280FD8DFE800F00205B3
:1016F000080B074B18887047064B18887047064B35
:1017000018887047054B188870470020704700BF45
:10171000CC090020E4090020FC090020140A002064
:10172000F0EE407AB1EE600AB4EEE70AF1EE10FA9C
:1017300004D8F4EEE70AF1EE10FA07DAF4EEE70A5D
:10174000F1EE10FA04D5B0EE600A7047B0EE670A09
:101750007047000080ED000AC0ED010A80ED021A1A
:10176000C0ED0E1A80ED0F2AC0ED0A2A0023036196
:1017700043618361C3610362C36243630363436480
:101780000364C364034BC3644FF07E53836480F8E7
:10179000501070470000404180ED030A7047D0EDC3
:1017A000107AF4EE407AF1EE10FA04D080ED100ACF
:1017B000012380F85030704790F85030012B0AD048
:1017C00080ED040AC36A0363D0ED037A37EEC00AE2
:1017D00080ED0B0A7047D0ED117A90ED127AF4EE9D
:1017E000C77AF1EE10FA06D5B7EE007A77EE877A6F
:1017F000C0ED117AE4E700234364D0ED037A90ED65
:10180000107AF4EEC77AF1EE10FA10D5D0ED136A23
:1018100077EEA67AC0ED037AB4EEE77AF1EE10FA2D
:10182000CED880ED037A002380F85030C8E7F4EE7C
:10183000C77AF1EE10FA10DDD0ED136A77EEE67A92
:10184000C0ED037AB4EEE77AF1EE10FAB8DB80ED82
:10185000037A002380F85030B2E7002380F850303C
:10186000AEE710B52DED028B044690ED008AD0ED69
:101870000B8A28EE288A80ED058AF1EE417AF4EE93
:10188000E78AF1EE10FA2DDDF4EEC18AF1EE10FADE
:1018900028D590ED0D0A38EE800A80ED0D0AD0EDC6
:1018A000017A20EE270A80ED060AD0ED0E0AFFF736
:1018B00037FF84ED060AD4ED027A94ED0C7A78EEC7
:1018C000C78A67EEA88AC4ED078A38EE008A38EE28
:1018D000880A84ED080AD4ED0F0AFFF721FF84ED92
:1018E000080A0BE094ED070A38EE000A84ED080AB6
:1018F000D4ED0F0AFFF714FF84ED080AD4ED086A4F
:10190000D4ED097A76EEE76A94ED0A7AF4EEC76AC6
:10191000F1EE10FA03DD77EE876AC4ED086AD4EDC4
:10192000086A76EEE76AB1EE476AF4EEC66AF1EE4F
:1019300010FA03D577EEC77AC4ED087A94ED080A59
:1019400084ED090ABDEC028B10BD000008B50E48FD
:101950000E4B03600323436000238360C3604FF496
:10196000002202614FF44012426103760122427666
:101970008376C3760377437700F0D2FB00B908BDC6
:1019800000F03BF9FBE700BF3C0A00200064004088
:1019900008B50E480E4B03600323436000238360A9
:1019A000C3604FF4002202614FF44012426103769B
:1019B000012242768376C3760377437700F0B0FB4B
:1019C00000B908BD00F019F9FBE700BF640A002068
:1019D0000068004010B58AB0002305930693079372
:1019E0000893099303683F4A934204D03E4A9342C6
:1019F00036D00AB010BD3D4A136801331360012B85
:101A000021D0002401943A4B1A6B42F001021A6370
:101A10001B6B03F001030193019B4FF4C05305932B
:101A200002230693032308930923099305A9314848
:101A300001F012FA22460521142000F061FF142063
:101A400000F096FFD5E700230093294B1A6C42F073
:101A500000721A641B6C03F000730093009BD0E7C4
:101A600000230293224B1A6C42F080621A641B6CB2
:101A700003F080630293029B1C4A136801331360D6
:101A8000012B21D000240494194B1A6B42F002025E
:101A90001A631B6B03F002030493049B4FF440533F
:101AA000059302230693032308930923099305A9A9
:101AB000114801F0D1F922460521402000F020FF15
:101AC000402000F055FF94E700230393084B1A6C65
:101AD00042F000721A641B6C03F000730393039BC3
:101AE000D0E700BF0064004000680040380A0020D2
:101AF00000380240000002400004024010B582B0ED
:101B0000002401940D4B1A6B42F480021A631B6B84
:101B100003F480030193019B224605213A2000F043
:101B2000EFFE3A2000F024FF22460521462000F077
:101B3000E7FE462000F01CFF02B010BD0038024056
:101B400008B5012002F096FCFBE700B583B003F076
:101B500081FD0190FFF74EFB012101A803F088FEF3
:101B6000F5E7000008B5074A0021074802F024FC09
:101B7000064B1860064A0021064802F01DFC064B81
:101B8000186008BDE4DE0008411B0008900A002030
:101B9000C0DE00084B1B00088C0A002084B0002225
:101BA0000192104B196B41F080011963196B01F020
:101BB0008001019101990292196B41F002011963B0
:101BC000196B01F002010291029903921A6B42F023
:101BD00001021A631B6B03F001030393039B04B020
:101BE000704700BF0038024008B50368B3F1804F6A
:101BF00000D008BD00F06EFAFBE772B6FEE7000009
:101C000000B595B03022002108A804F08DFB002318
:101C1000039304930593069307930193214A116C50
:101C200041F080511164126C02F080520192019ACD
:101C300002931D4B1A6842F480421A601B6803F439
:101C400080430293029B012308934FF4803309934E
:101C500002230E934FF480020F92082210924FF449
:101C6000A872119212930423139308A801F0E6F9C5
:101C700098B90F23039302230493002305934FF491
:101C8000A05306934FF480530793052103A801F056
:101C90003BFC20B915B05DF804FBFFF7AEFFFFF782
:101CA000ACFF00BF003802400070004008B500F0F3
:101CB000F7F9FFF7A5FFFFF771FFFFF71FFFFFF72A
:101CC00045FE00F029F9FFF763FE04F0FFF9FFF786
:101CD0004BFB642000F010FA04F098FA02F03EFB8F
:101CE000FFF740FF02F04CFBFEE7000000B583B0B9
:101CF000002200920D4B596C41F480415964596C9B
:101D000001F48041009100990192196C41F08051D9
:101D100019641B6C03F080530193019B0F216FF03A
:101D2000010000F0EDFD03B05DF804FB0038024057
:101D300030B589B0044600230193224B1A6C42F05F
:101D400001021A641B6C03F001030193019B02A9B9
:101D500003A801F0AFFC069BD3B901F08BFC03464E
:101D60001948A0FB03239B0C013B18484FF080420D
:101D7000026040F2E732C260436000230361836087
:101D8000836101F01BFE054630B1284609B030BD25
:101D900001F070FC4300E3E70C4801F0ABFC0546A2
:101DA0000028F2D11C2000F0E3FD0F2C01D9012501
:101DB000EBE7002221461C2000F0A2FD044B1C6032
:101DC000E3E700BF0038024083DE1B43940A002093
:101DD00008000020FEE7FEE7FEE7FEE7FEE77047AB
:101DE00008B5024800F054FC08BD00BF3C0A0020C2
:101DF00008B5024801F0C6FC08BD00BF940A0020E7
:101E000010B5044C204602F097F8204604F0E4F99F
:101E100010BD00BFA00B002008B5024800F02EFF47
:101E200008BD00BFE00A002008B5024800F030FC01
:101E300008BD00BF640A002008B5024800F01EFF7C
:101E400008BD00BF400B00200120704708B504F01A
:101E500041FA162303604FF0FF3008BD08B54FF07C
:101E6000FF31FFF7F3FFFEE770B50C46164600257D
:101E700006E0AFF30080214601F8010B01350C4666
:101E8000B542F6DB304670BD70B50C4616460025EF
:101E900004E014F8010BAFF300800135B542F8DB24
:101EA000304670BD4FF0FF3070474FF400534B6029
:101EB00000207047012070470020704710B503468E
:101EC0000C4A0D490D48006840B10C4800680344B5
:101ED000521A934206D8094A136010BD0748084CAD
:101EE0000460F2E704F0F6F90C2303604FF0FF30D2
:101EF000F3E700BF0000022000040000DC0A00201D
:101F0000305E0020034AD2F8883043F47003C2F8F0
:101F10008830704700ED00E008B50A480A4B0360BE
:101F20004FF4E133436000238360C36003610C22FC
:101F300042618361C36101F065FE00B908BDFFF72E
:101F40005CFEFBE7A00B00200010014030B589B01B
:101F5000002303930493059306930793026803F108
:101F6000804303F588339A4201D009B030BD04465E
:101F70000025019503F594335A6C42F010025A641F
:101F80005A6C02F010020192019A02951A6B42F00B
:101F900001021A631B6B03F001030293029B4FF4CF
:101FA000C063039302230493032306930723079339
:101FB00003A9214800F050FF2048214B03604FF057
:101FC000006343608560C5604FF4806303614561D1
:101FD00085614FF48073C3610562456200F056FD70
:101FE00018BB164BE3639C631648174B03604FF016
:101FF00000634360402383600023C3604FF480622A
:10200000026143618361C3610362436200F03EFD8C
:1020100070B90C4BA3639C6300220521252000F0BE
:102020006FFC252000F0A4FC9FE7FFF7E6FDD8E752
:10203000FFF7E3FDEDE700BF00000240E00A0020EB
:1020400040640240400B0020B8640240DFF834D006
:10205000FFF758FF0C480D490D4A002302E0D45801
:10206000C4500433C4188C42F9D30A4A0A4C0023E2
:1020700001E013600432A242FBD304F031F9FFF710
:1020800015FE70470000022000000020C00900205B
:1020900034E50008C00900202C5E0020FEE70000A7
:1020A00008B50B4B1A6842F400721A601A6842F4C1
:1020B00080621A601A6842F480721A60032000F08D
:1020C0000DFC0F20FFF734FEFFF710FE002008BDC7
:1020D000003C0240034A1168034B1B780B44136019
:1020E000704700BFE80B002004000020014B186877
:1020F000704700BFE80B002038B50446FFF7F6FF35
:102100000546B4F1FF3F02D0044B1B781C44FFF797
:10211000EDFF401BA042FAD338BD00BF04000020F1
:10212000002800F0A18038B5044690F82030D3B1E3
:102130002268136843F001031360FFF7D7FF0546D9
:1021400023685A6812F0010F10D1FFF7CFFF401B30
:102150000A28F5D9636A43F400336362052384F8DF
:102160002030012038BDFFF735FCE1E71A6822F086
:1021700002021A60FFF7BAFF054623685A6812F098
:10218000020F0DD0FFF7B2FF401B0A28F5D9636A92
:1021900043F400336362052384F820300120E1E733
:1021A000227E012A3DD01A6822F080021A60637EE6
:1021B000012B3BD02268136823F040031360A37EF9
:1021C000012B39D02268136823F020031360E37ECB
:1021D000012B37D02268136843F010031360237F6C
:1021E000012B35D02268136823F008031360637F46
:1021F000012B33D02268136823F004031360A36813
:10220000E268134322691343626913436268013A27
:1022100021681343CB6100206062012384F82030E1
:10222000A0E71A6842F080021A60C0E722681368CB
:1022300043F040031360C2E72268136843F02003B1
:102240001360C4E72268136823F010031360C6E725
:102250002268136843F008031360C8E72268136814
:1022600043F004031360CAE70120704790F8203060
:10227000013BDBB2012B05D9436A43F4802343625F
:102280000120704730B5464BD3F8002242F00102DE
:10229000C3F80022D3F8002222F47C52C3F80022B3
:1022A000D3F80022486A42EA0022C3F800224A69B1
:1022B00002F01F02012000FA02F2D3F81C026FEABA
:1022C000020C20EA0200C3F81C02CB69C3B9344BEC
:1022D000D3F80C020CEA0000C3F80C028C884869A1
:1022E000CD6844EA0544483043F830408C6808889B
:1022F00040EA04404C6904F1480E03EBCE035860F9
:10230000CB69012B1ED08B69002B33D12448D0F828
:1023100004320CEA0303C0F804320B698BBB20487B
:10232000D0F814320CEA0303C0F814320B6A012B04
:102330002ED01B4AD2F8003223F00103C2F800323B
:10234000002030BD164BD3F80C021043C3F80C022A
:102350008C8848690D6844EA0544483043F83040A9
:1023600088894C698D6840EA0540483403EBC40312
:102370005860C8E70A48D0F804321343C0F8043262
:10238000CBE70748D0F814321343C0F81432CDE736
:102390000349D1F81C321A43C1F81C22C9E700BF17
:1023A0000064004070B5044690F82050EDB2012D55
:1023B00006D0436A43F4002343620125284670BDDA
:1023C000022380F820300268136823F001031360B1
:1023D000FFF78CFE064623685B6813F0010F0CD0F4
:1023E000FFF784FE831B0A2BF5D9636A43F400339D
:1023F0006362052384F82030E0E700256562DDE7AD
:1024000030B590F820C00468A4680CF1FF3C5FFA76
:102410008CFCBCF1010F62D814F0E05F59D0C4F31A
:10242000016C012404FA0CF41C608B68002B3DD174
:102430000D68CB68046843EA45550CF118031B018D
:10244000E55003680C690CF1180E03EB0E135C6089
:102450000B7D012B35D0D17993791B0443EA0163BD
:10246000517943EA012314790168234301EB0C11EC
:10247000C1F88C31D17893781B0443EA0163517819
:1024800043EA0123117802680B4302EB0C12C2F8F5
:10249000883102680CF1180C4FEA0C1C52F80C3011
:1024A00043F0010342F80C3000201DE04C6843EA81
:1024B000C403CC6823430CF11804240105682B5194
:1024C000BFE7036803EB0E13596841F4807159604C
:1024D000C1E7436A43F400134362012004E0436A06
:1024E00043F480234362012030BD90F820C00CF1FA
:1024F000FF3C5FFA8CFCBCF1010F00F2A58030B408
:1025000051B90468E46814F0030F10D1436A43F42E
:102510000013436201207EE00468246914F0030F75
:1025200005D1436A43F400134362012073E0056858
:1025300001F11B0424012C5904F004049460002CC4
:102540006BD1056801F11B0424012C59640D146042
:10255000046801F11B0C4FEA0C1C54F80C4004F009
:102560000204D4600468A444DCF8045015F0080F99
:102570005BD008241461056801F11B0C05EB0C15F8
:102580006D68C5F307259561046804EB0C14646855
:10259000240C5461026802EB0112D2F8B8211A70BF
:1025A000026802EB0112D2F8B821C2F307225A7076
:1025B000026802EB0112D2F8B821C2F307429A7006
:1025C000026802EB0112D2F8B821120EDA7002682A
:1025D00002EB0112D2F8BC211A71026802EB01125F
:1025E000D2F8BC21C2F307225A71026802EB011231
:1025F000D2F8BC21C2F307429A71026802EB0112C1
:10260000D2F8BC21120EDA71C1B90268D36843F066
:102610002003D360002030BC7047056801F11B0423
:1026200024012C59E408546092E701F11B0504EBE6
:102630000514646804F00F0414619CE702681369D0
:1026400043F020031361E5E7436A43F480234362C8
:102650000120704790F82030013BDBB2012B05D9F7
:10266000436A43F480234362012070470268536940
:102670001943516100207047704770477047704799
:102680007047704770477047704770477047704792
:102690002DE9F84F054603685C69D3F804809F680C
:1026A000D3F80CB0D3F810A0D3F8189014F00106AA
:1026B0003BD017F0010616D001229A6017F0020FE6
:1026C00008D117F0040F0CD117F0080606D04FF40C
:1026D000805608E0FFF7D0FF002604E0FFF7CFFFA9
:1026E00001E04FF4006617F4807F0DD02B684FF4A3
:1026F00080729A6017F4007F40F0868017F4806F34
:1027000000F0868046F4005617F4803F0DD02B6809
:102710004FF480329A6017F4003F40F0838017F442
:10272000802F00F0838046F4004614F0080F07D095
:102730001BF0100F04D046F400762B681022DA60EC
:1027400014F0040F02D01BF0080F79D114F0020F1F
:1027500004D02B68DB6813F0030F78D114F0400F1E
:1027600007D01AF0100F04D046F480662B681022B0
:102770001A6114F0200F02D01AF0080F6BD114F078
:10278000100F04D02B681B6913F0030F6AD114F4E7
:10279000003F02D018F0100F68D114F4803F02D02F
:1027A00018F0080F69D114F4004F7AD018F0040F14
:1027B00074D014F4807F04D019F0010F01D046F0DA
:1027C000010614F4007F04D019F0020F01D046F086
:1027D000020614F4806F04D019F0040F01D046F003
:1027E000040614F4006F59D019F0700956D0B9F1ED
:1027F000400F65D058D8B9F1200F5ED0B9F1300F35
:1028000042D146F0200644E02846FFF736FF7BE73A
:1028100017F4006F02D046F4804675E72846FFF7AC
:102820002FFF71E72846FFF729FF7EE717F4002FF7
:1028300002D046F4803678E72846FFF722FF74E797
:102840002B680822DA602846FFF71CFF7EE728463F
:10285000FEF750FE82E72B6808221A612846FFF730
:1028600013FF8CE72846FFF70EFF90E72B68102236
:102870005A602846FFF709FF8FE72B6808225A6045
:102880002846FFF703FF8EE7B9F1100F01D146F09C
:1028900008062A68936923F0700393612B68042269
:1028A0005A609EB9BDE8F88FB9F1500F0BD0B9F15D
:1028B000600FEED146F48076EBE746F01006E8E7CD
:1028C00046F04006E5E746F08006E2E76B6A1E4305
:1028D0006E622846FFF7DBFEE4E70000074AD36894
:1028E00023F4E0631B041B0C000200F4E0600343CC
:1028F00043F0BF6343F40033D360704700ED00E062
:1029000000B5194BDB68C3F30223C3F1070CBCF11C
:10291000040F28BF4FF0040C03F1040EBEF1060FA4
:1029200018D9033B4FF0FF3E0EFA0CFC21EA0C01D4
:1029300099400EFA03F322EA0303194300280BDB44
:102940000901C9B200F1604000F5614080F8001350
:102950005DF804FB0023E5E700F00F000901C9B2B0
:10296000024B1954F4E700BF00ED00E014ED00E065
:10297000002807DB00F01F02400901239340024AB0
:1029800042F82030704700BF00E100E030B4056835
:102990002C6824F480242C60046863608368402BD6
:1029A00005D0036899600368DA6030BC704703683B
:1029B0009A600368D960F8E710B40368D9B2103997
:1029C0000C4AA2FB014212090B4CA25CC2655F29B2
:1029D00009D923F47F7323F0030304338365806DE7
:1029E0005DF8044B704723F47F7323F00303836582
:1029F000F5E700BFABAAAAAA20DF0008836A8269B4
:102A000092B9012B0AD0022B02D00BB100207047E3
:102A1000C36A13F0807F28D100207047C36AB3F1E6
:102A2000C07F24D000207047B2F5005F09D0022B90
:102A300025D9032B25D1C36A13F0807F23D1002031
:102A40007047032B03D8DFE803F01404140A0020B6
:102A50007047C36A13F0807F0DD100207047C36AAE
:102A6000B3F1C07F09D000207047012070470120DA
:102A700070470120704701207047012070470120F6
:102A800070470020704701207047000070B5044671
:102A9000FFF72CFB002C5BD00546022384F8353071
:102AA000002384F834302268136823F00103136094
:102AB00023681A6812F0010F0AD0FFF717FB431BB7
:102AC000052BF5D920236365032084F8350070BDFC
:102AD0001A68204810406168A2680A43E1680A4306
:102AE00021690A4361690A43A1690A43E1690A430A
:102AF000216A0A430243616A04291ED01A602668CB
:102B0000756925F00705636A1D43042B07D1A36A85
:102B10001D43E36A1BB12046FFF770FF90B9756152
:102B20002046FFF749FFE26D3F239340836000207A
:102B30006065012384F83530C9E7E16A206B014301
:102B40000A43DBE740236365012084F83500BEE7D4
:102B50000120BCE73F8010F038B50446856D90F841
:102B6000340001282BD0012084F8340094F835007B
:102B7000C0B2012804D0002384F83430022038BDCC
:102B8000022084F83500002060652046FFF7FEFE35
:102B9000E26D3F239340AB602268136843F0160355
:102BA0001360236C23B12268136843F00803136099
:102BB0002268136843F0010313600020DFE702205E
:102BC000DDE770B50446866DFFF790FA94F835306E
:102BD000DBB2022B06D080236365002384F83430F7
:102BE000012070BD05462268136823F016031360A8
:102BF0002268536923F080035361236CE3B1226898
:102C0000136823F0080313602268136823F001039C
:102C1000136023681B6813F0010F11D0FFF766FAE9
:102C2000431B052BF5D920236365032084F8350069
:102C3000002384F83430D4E7A36C002BDFD1E3E722
:102C4000E26D3F239340B360012384F835300020C8
:102C500084F83400C5E790F83530DBB2022B03D09E
:102C60008023436501207047052380F835300268D2
:102C7000136823F00103136000207047F0B583B0A0
:102C8000044600230193724B1D68724BA3FB05356C
:102C9000AD0A876D3E68C26D08239340334210D061
:102CA00003681A6812F0040F0BD01A6822F00402AD
:102CB0001A60C26D08239340BB60436D43F001036B
:102CC0004365E26D01239340334209D02268526983
:102CD00012F0800F04D0BB60636D43F002036365A4
:102CE000E26D04239340334209D02268126812F047
:102CF000020F04D0BB60636D43F004036365E26DB3
:102D000010239340334224D02268126812F0080F37
:102D10001FD0BB6023681A6812F4802F0DD01B6887
:102D200013F4002F04D1236C9BB12046984710E088
:102D3000A36C73B1204698470BE01A6812F4807FA9
:102D400003D11A6822F008021A60236C0BB12046E6
:102D50009847E26D20239340334255D02268126891
:102D600012F0100F50D0BB6094F83530DBB2052B59
:102D70000ED023681A6812F4802F33D01B6813F426
:102D8000002F2AD1636C002B3ED0204698473BE0B1
:102D90002268136823F0160313602268536923F036
:102DA00080035361236CA3B12268136823F00803E6
:102DB0001360E26D3F239340BB60012384F83530FC
:102DC000002384F83430236D002B3FD020469847F1
:102DD0003CE0A36C002BE7D1EBE7E36BA3B120460B
:102DE000984711E01A6812F4807F09D11A6822F01E
:102DF00010021A60012384F83530002384F834303F
:102E0000E36B0BB120469847636DFBB1636D13F024
:102E1000010F17D0052384F835302268136823F09A
:102E200001031360019B01330193AB4204D8236873
:102E30001B6813F0010FF5D1012384F8353000230E
:102E400084F83430E36C0BB12046984703B0F0BDF2
:102E500000000020B5814E1B00230F2B00F2E48000
:102E600070B582B060E085685E000324B44025EA56
:102E70000405CC68B4402C438460456825EA02050B
:102E80004C68C4F300129A402A4342605AE0DC08BE
:102E9000083450F8246003F0070295000F22AA407E
:102EA00026EA020E0A69AA4042EA0E0240F82420ED
:102EB0005CE0072200E0002202FA0EF22A4302340C
:102EC0005A4D45F824205A4A94686FEA0C0224EAC5
:102ED0000C054E6816F4801F01D04CEA0405544CD2
:102EE000A560E46802EA04054E6816F4001F01D0EC
:102EF0004CEA04054E4CE560646802EA04054E683D
:102F000016F4003F01D04CEA0405494C6560246882
:102F100022404D6815F4803F01D04CEA0402444C35
:102F2000226001330F2B7DD801229A400C6804EAFD
:102F3000020C32EA0404F4D14C6804F00304013CAE
:102F4000012C90D94A6802F00302032A09D0C46810
:102F50005D000322AA4024EA02048A68AA402243B0
:102F6000C2604A6802F00302022A90D004684FEA65
:102F7000430E032202FA0EF224EA02044A6802F027
:102F8000030202FA0EF2224302604A6812F4403F42
:102F9000C7D000220192274A546C44F48044546400
:102FA000526C02F480420192019A9C08A51C1F4AAF
:102FB00052F8255003F003024FEA820E0F2202FA64
:102FC0000EF225EA02051C4A90423FF474AF02F566
:102FD000806290421AD002F58062904218D002F5C9
:102FE0008062904216D002F58062904214D002F5C1
:102FF0008062904212D002F58062904210D002F5B9
:10300000806290423FF455AF082255E7012253E712
:10301000022251E703224FE704224DE705224BE746
:10302000062249E702B070BD704700BF003801407A
:10303000003C01400038024000000240002800F03F
:10304000E08170B582B00446036813F0010F3BD0F5
:103050009F4B9B6803F00C03042B2CD09C4B9B686C
:1030600003F00C03082B21D06368B3F5803F4FD0E9
:10307000B3F5A02F52D0964B1A6822F480321A6012
:103080001A6822F480221A606368002B50D0FFF780
:103090002DF805468E4B1B6813F4003F14D1FFF743
:1030A00025F8401B6428F5D90320B1E1884B5B6803
:1030B00013F4800FD8D0864B1B6813F4003F03D065
:1030C0006368002B00F09F81236813F0020F54D037
:1030D0007F4B9B6813F00C0F3ED07D4B9B6803F039
:1030E0000C03082B33D0E368002B68D0794B012206
:1030F0001A60FEF7FBFF0546754B1B6813F0020FC5
:1031000054D1FEF7F3FF401B0228F5D903207FE1DD
:103110006F4A136843F480331360B5E76C4B1A6849
:1031200042F480221A601A6842F480321A60ABE7D7
:10313000FEF7DCFF0546664B1B6813F4003FC3D067
:10314000FEF7D4FF401B6428F5D9032060E1604BF3
:103150005B6813F4800FC6D15D4B1B6813F0020F40
:1031600003D0E368012B40F05081594A136823F0E3
:10317000F803216943EAC1031360236813F0080FC1
:1031800042D063696BB3534B0122C3F8802EFEF724
:10319000ADFF05464E4B5B6F13F0020F34D1FEF7C7
:1031A000A5FF401B0228F5D9032031E1484A1368E6
:1031B00023F0F803216943EAC1031360DDE7454BBF
:1031C00000221A60FEF792FF0546414B1B6813F080
:1031D000020FD2D0FEF78AFF401B0228F5D9032048
:1031E00016E13C4B0022C3F8802EFEF77FFF054618
:1031F000374B5B6F13F0020F06D0FEF777FF401BD3
:103200000228F5D9032003E1236813F0040F77D0D7
:103210002F4B1B6C13F0805F33D1002301932C4B99
:103220001A6C42F080521A641B6C03F080530193B5
:10323000019B0125284B1B6813F4807F23D0A368D2
:10324000012B34D0052B38D0214B1A6F22F001020C
:103250001A671A6F22F004021A67A368002B3DD088
:10326000FEF744FF06461A4B1B6F13F0020F46D1C0
:10327000FEF73CFF801B41F288339842F3D90320CC
:10328000C6E00025D6E7144A136843F48073136040
:10329000FEF72CFF0646104B1B6813F4807FCED13F
:1032A000FEF724FF801B0228F5D90320B0E0084A6E
:1032B000136F43F001031367CFE7054B1A6F42F01A
:1032C00004021A671A6F42F001021A67C5E700BFCD
:1032D000003802400000474200700040FEF706FF41
:1032E0000646524B1B6F13F0020F08D0FEF7FEFE8E
:1032F000801B41F288339842F3D9032088E0EDB96E
:10330000A369002B00F08380484A926802F00C0207
:10331000082A51D0022B17D0454B00221A66FEF71F
:10332000E5FE0446414B1B6813F0007F42D0FEF7D8
:10333000DDFE001B0228F5D9032069E03B4A136C2F
:1033400023F080531364DBE7394B00221A66FEF743
:10335000CDFE0546354B1B6813F0007F06D0FEF707
:10336000C5FE401B0228F5D9032051E0E369226A1B
:103370001343626A43EA8213A26A5208013A43EA9B
:103380000243E26A43EA0263284A5360284B01225F
:103390001A66FEF7ABFE0446244B1B6813F0007F51
:1033A00006D1FEF7A3FE001B0228F5D903202FE06B
:1033B00000202DE000202BE0012B2BD01B4B5B6865
:1033C00003F48001E269914226D103F03F02216AB1
:1033D0008A4223D1616A47F6C0721A40B2EB811F5C
:1033E0001ED103F44031A26A5208013AB1EB024FF8
:1033F00018D103F07063E26AB3EB026F14D10020BE
:1034000006E001207047012002E0012000E00020DA
:1034100002B070BD0120FBE70120F9E70120F7E7CA
:103420000120F5E70120F3E70120F1E70038024031
:103430000000474208B5314B9B6803F00C03042B96
:1034400057D0082B57D12D4B5A6802F03F025B68CA
:1034500013F4800F2AD0294B5968C1F3881C4FEA16
:103460004C11B1EB0C006EEB0E0E4FEA8E1343EADB
:1034700090638101091A63EB0E03DB0043EA517389
:10348000C90011EB0C0C43F10003590200234FEA71
:103490004C2041EADC51FCF793FE184B5B68C3F308
:1034A000014301335B00B0FBF3F025E0134B596897
:1034B000C1F3881C4FEA4C11B1EB0C006EEB0E0E01
:1034C0004FEA8E1343EA90638101091A63EB0E03FE
:1034D000DB0043EA5173C90011EB0C0C43F100030C
:1034E000990200234FEA8C2041EA9C51FCF768FEC8
:1034F000D3E7034800E0034808BD00BF003802409E
:1035000000127A000024F400002800F09B8070B5BF
:103510000D4604464F4B1B6803F007038B4208D24D
:10352000CBB24C4A1370136803F007038B4240F090
:103530008B80236813F0020F17D013F0040F04D010
:10354000454A936843F4E0539360236813F0080FEF
:1035500004D0414A936843F4604393603E4A9368C1
:1035600023F0F003A1680B439360236813F0010F6D
:1035700032D06368012B21D09A1E012A25D9364A00
:10358000126812F0020F61D033498A6822F00302F8
:1035900013438B60FEF7AAFD06462F4B9B6803F092
:1035A0000C036268B3EB820F16D0FEF79FFD801B01
:1035B00041F288339842F0D9032042E0264A12684B
:1035C00012F4003FE0D101203BE0234A126812F0E0
:1035D000007FD9D1012034E01E4B1B6803F00703A4
:1035E000AB4207D9EAB21B4B1A701B6803F0070302
:1035F000AB422DD1236813F0040F06D0164A93680E
:1036000023F4E053E1680B439360236813F0080F41
:1036100007D0114A936823F46043216943EAC10348
:103620009360FFF707FF0C4B9B68C3F303130B4A30
:10363000D35CD8400A4B18600A4B1868FEF778FB39
:10364000002070BD012070470120FAE70120F8E753
:103650000120F6E7003C02400038024008DF000885
:103660000000002008000020014B1868704700BFD0
:103670000000002008B5FFF7F7FF044B9B68C3F379
:103680008223034AD35CD84008BD00BF0038024003
:1036900018DF000808B5FFF7E7FF044B9B68C3F38A
:1036A0004233034AD35CD84008BD00BF0038024013
:1036B00018DF00080F2303600B4B9A6802F0030227
:1036C00042609A6802F0F00282609A6802F4E05266
:1036D000C2609B68DB0803F4E0530361034B1B6883
:1036E00003F007030B60704700380240003C0240C3
:1036F0007047000090F83D30DBB2012B37D1022338
:1037000080F83D300268D36843F00103D36003685A
:10371000194A934220D0B3F1804F1DD0A2F57C42CC
:10372000934219D002F58062934215D002F580626F
:10373000934211D002F5784293420DD002F57052B7
:10374000934209D0A2F59432934205D01A6842F010
:1037500001021A60002070479A6802F00702062AE8
:1037600007D01A6842F001021A6000207047012059
:1037700070470020704700BF00000140704770474D
:103780007047704770B504460368DE681D6915F020
:10379000020F10D016F0020F0DD06FF002021A6166
:1037A0000123037703689B6913F0030F5ED0FFF7D3
:1037B000E6FF0023237715F0040F12D016F0040F54
:1037C0000FD023686FF004021A6102232377236865
:1037D0009B6913F4407F4FD02046FFF7D0FF0023B2
:1037E000237715F0080F12D016F0080F0FD02368BA
:1037F0006FF008021A61042323772368DB6913F052
:10380000030F40D02046FFF7BAFF0023237715F0BF
:10381000100F12D016F0100F0FD023686FF01002A7
:103820001A61082323772368DB6913F4407F31D0C2
:103830002046FFF7A4FF0023237715F0010F02D0E5
:1038400016F0010F2DD115F0800F02D016F0800F69
:103850002FD115F0400F02D016F0400F31D115F0E6
:10386000200F02D016F0200F33D170BDFFF786FF76
:103870002046FFF785FF9CE72046FFF77FFF2046A5
:10388000FFF77EFFABE72046FFF778FF2046FFF704
:1038900077FFBAE72046FFF771FF2046FFF770FF7A
:1038A000C9E723686FF001021A612046FEF79CF910
:1038B000C9E723686FF080021A61204600F0ABF878
:1038C000C7E723686FF040021A612046FFF759FFEF
:1038D000C5E723686FF020021A61204600F09AF8CD
:1038E000C3E700000368344A904212D0B0F1804F21
:1038F0000FD0A2F57C4290420BD002F5806290423C
:1039000007D002F58062904203D002F578429042DF
:1039100003D123F070034A681343274A90422AD008
:10392000B0F1804F27D0A2F57C42904223D002F51F
:10393000806290421FD002F5806290421BD002F557
:103940007842904217D002F57052904213D002F59F
:10395000806290420FD002F5806290420BD0A2F5B7
:103960009832904207D002F58062904203D002F56F
:103970008062904203D123F44073CA68134323F05A
:1039800080034A69134303608B68C3620B688362D8
:10399000094B984203D003F58063984201D10B692B
:1039A000036301234361036913F0010F03D003692B
:1039B00023F00103036170470000014040B310B5DC
:1039C000044690F83D30F3B1022384F83D3021469F
:1039D00051F8040BFFF786FF012384F8463084F882
:1039E0003E3084F83F3084F8403084F8413084F829
:1039F000423084F8433084F8443084F8453084F809
:103A00003D30002010BD80F83C30FFF771FEDBE751
:103A10000120704770477047026802F10C0353E8B9
:103A2000003F23F0C0030C3242E800310029F3D1FB
:103A3000202380F841307047026802F10C0353E8FC
:103A4000003F23F490730C3242E800310029F3D197
:103A5000026802F1140353E8003F23F0010314321B
:103A600042E800310029F3D1036B012B05D020235C
:103A700080F84230002303637047026802F10C03B0
:103A800053E8003F23F010030C3242E800310029D4
:103A9000F3D1ECE790F84130DBB2212B01D00220CA
:103AA00070478368B3F5805F17D0036A5A1C0262BF
:103AB0001A7803685A60C38C9BB2013B9BB2C384E3
:103AC0004BB90268D36823F08003D3600268D368DF
:103AD00043F04003D360002070470369002BE4D11A
:103AE000036A1B880268C3F308035360036A023346
:103AF0000362E0E738B504460268136923F44053D3
:103B0000C1680B431361836802691343426913431D
:103B1000C2691A430168CB6823F4164323F00C03EF
:103B20001343CB600268536923F4407381690B43EC
:103B300053610368314A934206D002F58062934292
:103B400002D0FFF797FD01E0FFF7A4FDE369B3F5AD
:103B5000004F29D00021031849411B1841F10001F1
:103B6000C90041EA5371DB00181863684FEA830209
:103B70004FEA937341F10001FCF722FB204DA5FBB6
:103B800000325109642303FB11031B013233A5FBEF
:103B900003235B0903F0F00202EB011203F00F03B1
:103BA000216813448B6038BD0023021843EB0301E6
:103BB000121841F10001C90041EA5271D2001018F7
:103BC00041F10001626892185B41FCF7F9FA0C4D73
:103BD000A5FB00325109642303FB1103DB003233E0
:103BE000A5FB03235B095A0002F4F87202EB0112F1
:103BF00003F00703216813448B60D4E700100140F1
:103C00001F85EB5160B310B5044690F8413013B3F3
:103C1000242384F841302268D36823F40053D3600E
:103C20002046FFF767FF2268136923F4904313616E
:103C30002268536923F02A0353612268D36843F44E
:103C40000053D36000206064202384F8413084F85E
:103C50004230606310BD80F84030FEF777F9D7E757
:103C60000120704738B590F84130DBB2202B30D1BD
:103C7000044600292FD00AB9012038BD0162828490
:103C8000C28400234364212084F84100A06B134DBB
:103C9000C563A06B124D0564A06B124DC564A06B8B
:103CA000036520681346021DA06BFEF755FF2368CD
:103CB0006FF040021A60226802F1140353E8003FDB
:103CC00043F08003143242E800310029F3D1002090
:103CD000D3E70220D1E70120CFE700BF6F3D000806
:103CE000D73D0008E73D000810B5044603685A694F
:103CF00090F84130DBB2212B0AD023685A6902F0D8
:103D0000400294F84230DBB2222B19D0002010BDC3
:103D100002F08002002AF0D0226802F1140353E876
:103D2000003F23F08003143242E800310029F3D130
:103D3000A06B08B1FEF745FF2046FFF76DFEDCE7FC
:103D4000002AE3D0226802F1140353E8003F23F075
:103D50004003143242E800310029F3D1E06B08B18E
:103D6000FEF72FFF2046FFF767FECFE7704708B545
:103D70000346806B1B681B6813F4807F1AD10023F5
:103D8000C384026802F1140353E8003F23F0800368
:103D9000143242E800310029F3D1026802F10C0329
:103DA00053E8003F43F040030C3242E80031002961
:103DB000F3D108BDFFF7DAFFFBE708B50168CA6871
:103DC00022F04002CA60202280F84120FFF7CEFF97
:103DD000002008BD704708B5806BFFF7FBFF08BDEA
:103DE00070477047704710B5846B23685A6994F820
:103DF0004130DBB2212B10D023685A6902F0400217
:103E000094F84230DBB2222B11D0636C43F01003E4
:103E100063642046FFF7E6FF10BD02F08002002A2F
:103E2000EAD00023E3842046FFF7F6FDE4E7002A0A
:103E3000EBD00023E3852046FFF7FEFDE5E708B55C
:103E4000806B0023C385C384FFF7CCFF08BD704798
:103E500090F84230DBB2222B69D18368B3F5805FE2
:103E60004FD0826AB3F5805F04D0002B56D103692E
:103E7000002B53D103685B681370836A013383623C
:103E8000C38D9BB2013B9BB2C385002B51D100B5C2
:103E900083B00268D36823F02003D3600268D3683C
:103EA00023F48073D3600268536923F001035361E4
:103EB000202380F8423000234363036B012B33D16E
:103EC00000230363026802F10C0353E8003F23F070
:103ED00010030C3242E800310029F3D103681A685C
:103EE00012F0100F06D0002201921A6801925B684E
:103EF0000193019B818DFFF7AAFF002003B05DF8BD
:103F000004FB0269002AACD1826A03685B68C3F3D0
:103F100008031380836A02338362B1E703685B6836
:103F200003F07F031370A8E7FFF75AFFE5E70220CD
:103F3000704700207047000030B583B00446026827
:103F40001368D068516913F00F0505D113F0200FE5
:103F500002D010F0200F19D12DB111F0010119D1AB
:103F600010F4907F16D1216B01297DD013F0800FC2
:103F700003D010F0800F40F0198113F0400F03D0F0
:103F800010F0400F40F0168103B030BD2046FFF71F
:103F90005FFFF9E713F0010F06D010F4807F03D024
:103FA000626C42F00102626413F0040F04D019B194
:103FB000626C42F00202626413F0020F04D019B185
:103FC000626C42F00402626413F0080F07D010F034
:103FD000200F00D119B1626C42F008026264626C79
:103FE000002AD1D013F0200F02D010F0200F29D1D9
:103FF00023685B6903F04003626C12F0080F00D184
:1040000063B32046FFF718FD23685B6913F0400F88
:1040100020D0226802F1140353E8003F23F040034C
:10402000143242E800310029F3D1E36B73B1634AE3
:104030001A65E06BFEF70FFE0028A5D0E06B036D5C
:104040009847A1E72046FFF703FFD1E72046FFF797
:10405000C9FE99E72046FFF7C5FE95E72046FFF722
:10406000C1FE002363648FE713F0100F3FF47EAFAF
:1040700010F0100F3FF47AAF0023019313680193FF
:1040800053680193019B536913F0400F52D0E26BC8
:1040900013685B689BB2002B3FF476AFA18D994209
:1040A0007FF672AFE385D369B3F5807F37D022689E
:1040B00002F10C0353E8003F23F480730C3242E812
:1040C00000310029F3D1226802F1140353E8003FC4
:1040D00023F00103143242E800310029F3D12268B1
:1040E00002F1140353E8003F23F04003143242E886
:1040F00000310029F3D1202384F8423000232363C8
:10410000226802F10C0353E8003F23F010030C3245
:1041100042E800310029F3D1E06BFEF752FD0223A3
:104120006363A18DE38D9BB2C91A89B22046FFF764
:104130008EFE29E7A18DE38D9BB2C91A89B2E38D6A
:104140009BB2002B3FF420AF00293FF41DAF226843
:1041500002F10C0353E8003F23F490730C3242E861
:1041600000300028F3D1226802F1140353E8003F25
:1041700023F00103143242E800300028F3D1202359
:1041800084F8423000232363226802F10C0353E8D1
:10419000003F23F010030C3242E800300028F3D136
:1041A000022363632046FFF752FEEDE62046FFF749
:1041B00071FCE9E62046FFF700FEE5E63F3E000819
:1041C00008B5806B01234363036B012B02D0FFF71B
:1041D00008FE08BD818D4908FFF739FEF9E708B5EB
:1041E0000346806B1B681B6813F4807F2BD1002370
:1041F000C385026802F10C0353E8003F23F4807387
:104200000C3242E800310029F3D1026802F11403B4
:1042100053E8003F23F00103143242E80031002943
:10422000F3D1026802F1140353E8003F23F0400386
:10423000143242E800310029F3D1202380F84230C3
:10424000036B012B07D000234363036B012B0FD0BB
:10425000FFF7C6FD08BD026802F10C0353E8003FFA
:1042600023F010030C3242E800310029F3D1EAE7D1
:10427000818DFFF7ECFDEDE730B583B004461346C2
:104280008162828500254564222280F84220C26B2B
:104290001F48D063E26B1F481064E26B1E48D06475
:1042A000E26B156520680A46011DE06BFEF754FCC1
:1042B000019523681A6801925B680193019B236949
:1042C0005BB1226802F10C0353E8003F43F48073B2
:1042D0000C3242E800310029F3D1226802F11403C4
:1042E00053E8003F43F00103143242E80031002953
:1042F000F3D1226802F1140353E8003F43F0400376
:10430000143242E800310029F3D1002003B030BD5F
:10431000DF410008C1410008E73D000808B590F8FA
:104320004230DBB2202B08D149B10AB9012008BDC7
:1043300000230363FFF7A0FFF9E70220F7E701205E
:10434000F5E708B54FF0E0231B6901F021FC0128D7
:1043500000D108BD00F0D6F9FBE70000EFF30583BC
:104360002BB9064B186828B901221A6070476FF004
:10437000050070474FF0FF30704700BF480E002027
:10438000EFF3058373B90A4B1B68012B0DD110B5F0
:104390000024084BDC77064B02221A6001F004F976
:1043A000204610BD6FF0050070474FF0FF3070479A
:1043B000480E002000ED00E0F0B587B00024059421
:1043C000EFF3058474BB68B322B31568936903B92E
:1043D00018235C1E372C49D8546814F0010F47D1BC
:1043E00056696EB14FEA960C94682CB1D7685B2F72
:1043F00002D9176907B1C6B92CB14FF0FF340EE0EE
:104400004FF0800CF0E7D4688CB9146994B14FF088
:10441000FF3404E01546002418234FF0800C012CD3
:104420000AD0ACB1059807B0F0BD0124F7E74FF012
:10443000FF34F4E70024F2E71469926802920194D1
:1044400000930B466246294601F03EF80590E9E7E5
:1044500005AA019200930B461FFA8CF2294601F03F
:104460006EF80128DED000230593DBE70020DAE7B1
:104470000020D8E708B5EFF3058333B908B9002069
:1044800008BD01F047FA0020FAE76FF00500F7E7F2
:10449000034B0360034B0B6080231360704700BF26
:1044A000EC0D0020EC0B0020034B0360034B0B6072
:1044B0004FF48073136070474C1200204C0E0020A4
:1044C00000F1080343604FF0FF328260C360036174
:1044D00000230360704700230361704743684B600B
:1044E0009A688A60516099600861036801330360CB
:1044F000704730B40D68B5F1FF3F11D000F10803EB
:104500001C465B681A68AA42FAD963684B609960D6
:104510008C606160086103680133036030BC7047E0
:104520000469F2E70369416882688A604168516002
:104530005A68824206D0002202611A68013A1A6063
:104540001868704782685A60F5E7000082B000235F
:1045500001930D4B1B68B3F1FF3F08D04FF05003A0
:1045600083F31188BFF36F8FBFF34F8FFEE74FF0D8
:10457000500383F31188BFF36F8FBFF34F8F019BFD
:10458000002BFCD002B070470C00002008480068E7
:10459000006880F308884FF0000080F3148862B64A
:1045A00061B6BFF34F8FBFF36F8F00DF00BF000016
:1045B00008ED00E0DFF80C00016841F470010160D3
:1045C0007047000088ED00E04FF0807340F8043C35
:1045D00021F0010140F8081C054B40F80C3C40F864
:1045E000202C6FF0020340F8243C4438704700BF91
:1045F0004D45000800000000000000000000000021
:10460000074B19680868B0E8F04F80F30988BFF3DA
:104610006F8F4FF0000080F311887047AFF3008078
:10462000104F00204FF0500383F31188BFF36F8FBA
:10463000BFF34F8F0B4A136801331360012B00D077
:1046400070474FF0E023D3F8043D13F0FF0FF7D08D
:104650004FF0500383F31188BFF36F8FBFF34F8F79
:10466000FEE700BF0C000020094B1B6843B94FF068
:10467000500383F31188BFF36F8FBFF34F8FFEE7B3
:10468000013B034A13600BB983F31188704700BFE5
:104690000C000020000000000000000000000000EE
:1046A000EFF30980BFF36F8F154B1A681EF0100FE0
:1046B00008BF20ED108A20E9F04F10602DE90900B5
:1046C0004FF0500080F31188BFF34F8FBFF36F8F0F
:1046D00001F046F94FF0000080F3118809BC196819
:1046E0000868B0E8F04F1EF0100F08BFB0EC108A59
:1046F00080F30988BFF36F8F704700BFAFF300806E
:10470000104F002008B54FF0500383F31188BFF31A
:104710006F8FBFF34F8F00F0A3FF28B14FF0E0235E
:104720004FF08052C3F8042D002383F3118808BD95
:104730004FF0E022002313619361054B1B6805498C
:10474000A1FB03139B09013B5361072313617047CE
:1047500000000020D34D62104FF0E023D3F8002D6D
:104760003D4B9A421CD04FF0E023D3F8002D3B4B39
:104770009A421ED030B583B0394B1A78D2B201922A
:10478000FF221A701B78DBB28DF803309DF80330DE
:1047900003F05003334A1370334B07221A601BE0B7
:1047A0004FF0500383F31188BFF36F8FBFF34F8F28
:1047B000FEE74FF0500383F31188BFF36F8FBFF311
:1047C0004F8FFEE7284A1368013B13609DF80330C2
:1047D0005B00DBB28DF803309DF8033013F0800FDF
:1047E000F0D1214B1B68032B08D04FF0500383F30B
:1047F0001188BFF36F8FBFF34F8FFEE71B021A4A7A
:10480000136003F4E0631360019BDBB2144A13707E
:104810004FF0E024D4F8203D43F47003C4F8203D69
:10482000D4F8203D43F07043C4F8203DFFF780FFEB
:1048300000250E4B1D60FFF7BDFED4F8343F43F05A
:104840004043C4F8343FFFF7A1FE01F089F8FFF7B9
:104850007DFE284603B030BD71C20F4170C20F41CA
:1048600000E400E0A8120020AC1200200C000020A0
:10487000EFF305830F2B0FD9114A9B5CDBB2114A72
:1048800012789A4208D94FF0500383F31188BFF38E
:104890006F8FBFF34F8FFEE74FF0E023D3F80C3D4F
:1048A00003F4E063084A1268934208D94FF05003BA
:1048B00083F31188BFF36F8FBFF34F8FFEE770470D
:1048C000F0E300E0A8120020AC120020124A12F01F
:1048D000070F1ED0D11D21F00701C1F570531344FD
:1048E0000A460E480260002141601344083B23F051
:1048F00007030B48036059601960991A51601360EF
:10490000084B1960084B1960084B4FF000421A60C1
:1049100070474FF47053E4E7B4120020C84E0020F3
:10492000B0120020BC4E0020B84E0020B44E002033
:10493000164B1A461B688342FBD3516802EB010CED
:10494000844509D0416800EB010C634509D0036040
:10495000904219D010607047406801445160104681
:10496000F0E710B40A4C2468A3420BD05B681944EA
:10497000416013681B680360904200D010605DF8CE
:10498000044B70470460F7E7704700BFC84E002033
:10499000B012002070B5054600F054FE364B1B687F
:1049A000A3B1364B1B681D424ED135B1083515F009
:1049B000070F02D025F007050835002D46D0304BF3
:1049C0001B68AB4251D32F4A146804E0FFF77EFF07
:1049D000E7E722461C466368AB4202D22368002BFD
:1049E000F7D1254B1B68A34241D0166808362368CF
:1049F000136063685B1B102B10D9601910F0070F50
:104A000008D04FF0500383F31188BFF36F8FBFF3CB
:104A10004F8FFEE743606560FFF78AFF62681849C1
:104A20000B689B1A0B60184909688B4201D2164922
:104A30000B60124B1B681343636000232360134A0F
:104A400013680133136002E0002600E0002600F046
:104A500093FE16F0070F0CD04FF0500383F311882C
:104A6000BFF36F8FBFF34F8FFEE70026EFE70026FF
:104A7000EDE7304670BD00BFB0120020B44E0020FC
:104A8000B84E0020C84E0020BC4E0020C04E002072
:104A9000002834D038B50446A0F1080550F8043C8D
:104AA000174A1268134208D14FF0500383F311885C
:104AB000BFF36F8FBFF34F8FFEE750F8081C41B173
:104AC0004FF0500383F31188BFF36F8FBFF34F8F05
:104AD000FEE723EA020340F8043C00F0B3FD54F87B
:104AE000041C084A13680B4413602846FFF720FF94
:104AF000054A13680133136000F03EFE38BD70476D
:104B0000B44E0020B84E0020C44E002010B504461C
:104B1000FFF788FDA26BE36B9A4204D00024FFF7F5
:104B2000A3FD204610BD0124F9E710B50446FFF7A8
:104B300079FDA36B23B90124FFF796FD204610BD34
:104B40000024F9E770B504461546866B026C5AB925
:104B500003681BB100200136A66370BD806801F0B8
:104B600027F80023A360F6E76DB94068FBF7AAFCBD
:104B7000226C636813446360A268934219D323686C
:104B800063602846E7E7C068FBF79CFC226C514253
:104B9000E3689B1AE3602268934202D2A3680B4445
:104BA000E360022D01D00020D5E726B1013E0020B0
:104BB000D1E72846CFE70020CDE70346026C6AB173
:104BC00010B50846D9681144D9609C68A14201D348
:104BD0001968D960D968FBF775FC10BD704738B506
:104BE0000546FFF71FFD95F8454064B201E0013C22
:104BF00064B2002C0ADD6B6A43B105F1240000F0B9
:104C00002DFF0028F3D000F0BDFFF0E7FF2385F86B
:104C10004530FFF729FDFFF705FD95F8444064B2E4
:104C200001E0013C64B2002C0ADD2B6943B105F1BF
:104C3000100000F013FF0028F3D000F0A3FFF0E70E
:104C4000FF2385F84430FFF70FFD38BD38B5E0B1DC
:104C50000D460446FFF7E6FC2368E26B216C01FB7E
:104C60000230A0600020A0636360013A02FB0133C0
:104C7000E360FF2384F8443084F84530FDB92369AC
:104C800063B9FFF7F1FC012038BD4FF0500383F307
:104C90001188BFF36F8FBFF34F8FFEE704F1100051
:104CA00000F0DCFE0028ECD04FF0E0234FF0805203
:104CB000C3F8042DBFF34F8FBFF36F8FE1E704F10B
:104CC0001000FFF7FDFB04F12400FFF7F9FBD8E724
:104CD00038B51D46049C0B4649B92460E063236443
:104CE00001212046FFF7B2FF84F84C5038BD226006
:104CF000F4E740B94FF0500383F31188BFF36F8F8F
:104D0000BFF34F8FFEE710B584B01C46844653B105
:104D100092B189B94FF0500383F31188BFF36F8FBD
:104D2000BFF34F8FFEE74FF0500383F31188BFF3BB
:104D30006F8FBFF34F8FFEE76AB150230393039B3E
:104D4000502B13D04FF0500383F31188BFF36F8FB4
:104D5000BFF34F8FFEE70029EFD04FF0500383F3EE
:104D60001188BFF36F8FBFF34F8FFEE7039B0123C3
:104D700084F8463000949DF818306046FFF7A8FF8D
:104D8000204604B010BDF0B585B0019288B10F4641
:104D90001D460446B1B1022D20D1E36B012B1DD07D
:104DA0004FF0500383F31188BFF36F8FBFF34F8F22
:104DB000FEE74FF0500383F31188BFF36F8FBFF30B
:104DC0004F8FFEE7036C002BE5D04FF0500383F3C9
:104DD0001188BFF36F8FBFF34F8FFEE700F0D8FE4F
:104DE000064658B9019B002B48D04FF0500383F37F
:104DF0001188BFF36F8FBFF34F8FFEE700263DE0B2
:104E00002A4639462046FFF79DFE636A7BB948B1C2
:104E10004FF0E0234FF08052C3F8042DBFF34F8FC3
:104E2000BFF36F8FFFF720FC012005B0F0BD04F148
:104E3000240000F013FE0028F4D04FF0E0234FF0E0
:104E40008052C3F8042DBFF34F8FBFF36F8FE9E794
:104E5000FFF70AFC0020E8E702A800F045FE012663
:104E600019E0002384F8443021E0002384F8453021
:104E700023E02046FFF7B3FE00F07EFCFFF7D2FBF5
:104E8000A26BE36B9A42BBD3022DB9D0019B002BDE
:104E9000DED0002EE0D0FFF7E7FB00F0D3FBFFF7FA
:104EA000C1FB94F8442052B2B2F1FF3FD9D094F83C
:104EB000452052B2B2F1FF3FD7D0FFF7D5FB01A991
:104EC00002A800F01DFED8B92046FFF71FFE0028FB
:104ED000CFD0019904F1100000F08CFD2046FFF7BF
:104EE0007EFE00F049FC0028C8D14FF0E0234FF0CF
:104EF0008052C3F8042DBFF34F8FBFF36F8FBDE710
:104F00002046FFF76CFE00F037FC00208DE72DE90E
:104F1000F84390B10F4616461C460546B1B1022C27
:104F200020D1EB6B012B1DD04FF0500383F3118880
:104F3000BFF36F8FBFF34F8FFEE74FF0500383F344
:104F40001188BFF36F8FBFF34F8FFEE7036C002B09
:104F5000E5D04FF0500383F31188BFF36F8FBFF399
:104F60004F8FFEE7FFF784FCEFF311894FF05003FA
:104F700083F31188BFF36F8FBFF34F8FAA6BEB6B77
:104F80009A4206D3022C04D0002089F31188BDE890
:104F9000F88395F845804FFA88F8AB6B224639467E
:104FA0002846FFF7CFFDB8F1FF3F06D008F1010317
:104FB0005BB285F845300120E7E76B6A0BB9012049
:104FC000E3E705F1240000F049FD18B126B1012006
:104FD0003060DAE70120D8E70120D6E7F0B585B0E8
:104FE000019290B10F460446C1B100F0D1FD0646D2
:104FF00000BB019B002B5ED04FF0500383F3118860
:10500000BFF36F8FBFF34F8FFEE74FF0500383F373
:105010001188BFF36F8FBFF34F8FFEE7036C002B38
:10502000E3D04FF0500383F31188BFF36F8FBFF3CA
:105030004F8FFEE700263EE039462046FFF7BDFDD4
:10504000013DA563236923B9FFF70EFB012005B0DD
:10505000F0BD04F1100000F001FD0028F4D04FF085
:10506000E0234FF08052C3F8042DBFF34F8FBFF3FE
:105070006F8FE9E7FFF7F8FA0020E8E702A800F0F1
:1050800033FD012621E0002384F8443029E0002389
:1050900084F845302BE02046FFF7A1FD00F06CFBC3
:1050A00009E02046FFF79BFD00F066FB2046FFF776
:1050B0003CFD00283FD1FFF7B5FAA56B002DBBD111
:1050C000019B002BD6D0002ED8D0FFF7CDFA00F0F0
:1050D000B9FAFFF7A7FA94F844305BB2B3F1FF3F97
:1050E000D1D094F845305BB2B3F1FF3FCFD0FFF79A
:1050F000BBFA01A902A800F003FD0028D1D1204687
:10510000FFF713FD0028C6D0019904F1240000F038
:1051100071FC2046FFF763FD00F02EFB0028CAD18A
:105120004FF0E0234FF08052C3F8042DBFF34F8FB0
:10513000BFF36F8FBFE7002089E700000023072B34
:105140000CD8074A52F833200AB10133F7E7044A72
:1051500042F8331002EBC30358607047704700BF3A
:10516000D04E002070B504460D461646FFF75AFA99
:1051700094F844305BB2B3F1FF3F0DD094F8453062
:105180005BB2B3F1FF3F0BD0FFF76EFAA36B5BB1DD
:105190002046FFF724FD70BD002384F84430EDE77E
:1051A000002384F84530EFE73246294604F1240015
:1051B00000F038FCECE70000084B1B681B6823B9C3
:1051C000074B4FF0FF321A607047044B1B68DB68D7
:1051D000DB685A68024B1A60704700BF144F00200A
:1051E000BC5300202DE9F04780460D4617469946EE
:1051F000089EDDF824A00A9C9200A521206B01F0F6
:1052000093F8236B07F18042013A03EB820727F002
:105210000707B5B34FF0000CBCF10F0F0BD815F812
:105220000C2004EB0C0383F8342015F80C3013B178
:105230000CF1010CF0E7002384F84330372E00D93D
:105240003726E662E66400252565201DFFF743F951
:1052500004F11800FFF73FF92461C6F13806A66192
:105260006462656584F858504A4641463846FFF7FF
:10527000ABF92060BAF1000F01D0CAF80040BDE8D8
:10528000F087002384F83430D8E7000038B50024D4
:1052900007E004EB840293000E481844FFF710F96E
:1052A0000134372CF5D90C4D2846FFF709F90B4C82
:1052B0002046FFF705F90A48FFF702F90948FFF70A
:1052C000FFF80948FFF7FCF8084B1D60084B1C600D
:1052D00038BD00BF1C4F002090530020A453002075
:1052E000C8530020F4530020E0530020144F002046
:1052F000184F002010B50446FFF794F9224A1368AE
:1053000001331360214B1B685BB1214B1B686BB9E8
:105310001E4B1B68DA6AE36A9A4207D81B4B1C6073
:1053200004E01A4B1C601368012B29D0194A13683A
:10533000013313606364E06A174B1B68984201D91C
:10534000154B186000EB8000211D144B03EB80000F
:10535000FFF7C4F8FFF788F90D4B1B687BB10B4BC7
:105360001B68DA6AE36A9A4209D24FF0E0234FF0F1
:105370008052C3F8042DBFF34F8FBFF36F8F10BD62
:10538000FFF784FFD2E700BF7C530020104F0020BE
:10539000DC530020885300208C5300201C4F002039
:1053A00010B5044690F8593063B1012B11D0022B8F
:1053B0000ED04FF0500383F31188BFF36F8FBFF30C
:1053C0004F8FFEE7006BFFF763FB2046FFF760FBA4
:1053D00010BDFFF75DFBFBE70F4B1B68D3B110B5AA
:1053E000FFF720F90D4BDB68DC68201DFFF79AF80A
:1053F0000B4A1368013B1360074A1368013B1360B3
:10540000FFF732F92046FFF7CBFF034B1B68002B59
:10541000E6D110BD704700BF80530020F453002038
:105420007C53002008B5FFF7D7FF074B1B68012B03
:10543000F9D94FF0E0234FF08052C3F8042DBFF3A9
:105440004F8FBFF36F8FEEE71C4F002070B50446FF
:105450000D46174B1E68174B18680430FFF762F8AB
:10546000B4F1FF3F0DD03444124B1B685C60A64280
:1054700010D9114B18680F4B19680431FFF739F830
:1054800070BD002DEFD00B4B196804310B48FFF7AE
:1054900025F8F5E70A4B1868064B19680431FFF741
:1054A00028F8084B1B68A342EAD9064B1C60E7E7C3
:1054B00008540020104F0020184F0020E053002017
:1054C000144F0020BC53002030B587B00B9C7CB13A
:1054D0000C9DB5B15C250495049D5C2D1AD04FF050
:1054E000500383F31188BFF36F8FBFF34F8FFEE735
:1054F0004FF0500383F31188BFF36F8FBFF34F8FCB
:10550000FEE74FF0500383F31188BFF36F8FBFF3B3
:105510004F8FFEE7049D0C9D2C63022485F85940B3
:1055200000240394029505AC01940A9C0094FFF7B3
:1055300059FE0C98FFF7DEFE059807B030BD2DE947
:10554000F04385B00746884614461E469000FFF794
:1055500021FA00B381465C20FFF71CFA0546B0B182
:10556000C0F83090E5B1002385F8593003930295D7
:105570000D9B01930C9B00933346224641463846CF
:10558000FFF730FE2846FFF7B5FE012005E048464C
:10559000FFF77EFAE6E74FF0FF3005B0BDE8F08395
:1055A0004FF0FF30F9E7000010B588B000240594F3
:1055B000069407AA06A905A8FEF76AFF059B0293B1
:1055C000069B019300942346079A18491848FFF751
:1055D0007BFF184B186040B100F09EFB012806D0FD
:1055E000B0F1FF3F18D008B010BD0020F6E74FF033
:1055F000500383F31188BFF36F8FBFF34F8F0E4BB0
:105600004FF0FF321A600D4B01221A600C4B002242
:105610001A60FFF7A1F8E6E74FF0500383F3118813
:10562000BFF36F8FBFF34F8FFEE700BF28DF000887
:1056300025540008B8530020BC530020DC53002040
:1056400008540020024A136801331360704700BFFA
:1056500084530020014B1868704700BF0854002095
:10566000F8B53A4B1B68002B69D1394B1D680135E1
:105670001D60C5B9374B1B681B6843B14FF0500321
:1056800083F31188BFF36F8FBFF34F8FFEE7314A6B
:105690001168314B186810601960304A1368013383
:1056A0001360FFF789FD2E4B1B68AB423DD90027E5
:1056B0002C4B1B68DB6A03EB83039A002A4B9B5835
:1056C000012B00D90127294B1B68002B3CD0012757
:1056D0003AE001271F4B1B681B6843B31D4B1B6837
:1056E000DB68DC6863689D4226D3261D3046FEF7E2
:1056F00019FFA36A1BB104F11800FEF713FFE36A58
:105700001B4A1268934201D9194A136003EB8303C1
:105710009A00314614481044FEF7E0FEE26A114B4D
:105720001B68DB6A9A42D4D2D4E70027D2E70C4B3D
:105730004FF0FF321A60BBE7094A1360B8E70D4A21
:1057400013680133136000273846F8BD84530020E6
:1057500008540020144F0020184F0020C053002090
:10576000BC530020104F00201C4F00200C54002080
:105770008C530020C453002038B5354B1B6843B907
:105780004FF0500383F31188BFF36F8FBFF34F8F38
:10579000FEE7FEF747FF2E4B1A68013A1A601B68B6
:1057A000002B4FD12B4B1B680BB900244BE000247E
:1057B000294B1B681BB3284BDB68DC6804F118001D
:1057C000FEF7B0FE251D2846FEF7ACFEE06A234B2F
:1057D0001B68984201D9214B186000EB80002946D4
:1057E0001F4B03EB8000FEF779FEE26A1D4B1B683E
:1057F000DB6A9A42DCD31C4B01221A60D8E70CB159
:10580000FFF7DAFC194B1C6884B9174B1C68D4B13C
:105810004FF0E0234FF08052C3F8042DBFF34F8FB9
:10582000BFF36F8F01240EE0013C07D0FFF718FF94
:105830000028F9D00C4B01221A60F5E70B4B00222F
:105840001A60E2E70024FEF70FFF204638BD00BFD4
:10585000845300207C530020C85300208C53002028
:105860001C4F0020104F00200C540020C453002077
:1058700038B558B10C46054689B94FF0500383F34B
:105880001188BFF36F8FBFF34F8FFEE74FF05003C8
:1058900083F31188BFF36F8FBFF34F8FFEE71B4B6E
:1058A0001B6843B14FF0500383F31188BFF36F8F30
:1058B000BFF34F8FFEE7FFF7C5FE154B18682B6847
:1058C0001C44834209D9A34201D82C600EE0A042B7
:1058D00001D32C600AE02C6004E0A34201D8A0426E
:1058E00012D22C600021201AFFF7B0FDFFF744FF11
:1058F00048B94FF0E0234FF08052C3F8042DBFF3B6
:105900004F8FBFF36F8F38BD2C60EFE784530020BB
:105910000854002010B5A8B10446104B1B6843B1D1
:105920004FF0500383F31188BFF36F8FBFF34F8F96
:10593000FEE7FFF787FE00212046FFF787FDFFF710
:105940001BFF48B94FF0E0234FF08052C3F8042DFD
:10595000BFF34F8FBFF36F8F10BD00BF8453002084
:105960001F4B1B681BB11F4B01221A6070471D4B58
:1059700000221A601C4B1B6803EB83018A001B4941
:105980008A585AB90BB1013BF6E74FF0500383F345
:105990001188BFF36F8FBFF34F8FFEE703EB8300D8
:1059A00082000A4450684068506003EB830C4FEA61
:1059B0008C020832114488420BD003EB8302910021
:1059C0000A4A0A445268D168094A1160064A1360BB
:1059D0007047406862469100044A0A445060ECE710
:1059E000845300200C5400208C5300201C4F0020B6
:1059F000104F002058B110B50C46094A11681831F3
:105A0000FEF777FD01212046FFF720FD10BD4FF086
:105A1000500383F31188BFF36F8FBFF34F8FFEE7FF
:105A2000104F002038B570B10D4614460A4A11686F
:105A30001831FEF753FD0CB14FF0FF3521462846D3
:105A4000FFF704FD38BD4FF0500383F31188BFF317
:105A50006F8FBFF34F8FFEE7104F002038B5C3683C
:105A6000DC6824B304F118052846FEF75BFD184BEB
:105A70001B682BBB251D2846FEF754FDE06A154B1D
:105A80001B68984201D9134B186000EB800029462F
:105A9000114B03EB8000FEF721FDE26A0F4B1B6800
:105AA000DB6A9A4211D901200D4B186038BD4FF0C6
:105AB000500383F31188BFF36F8FBFF34F8FFEE75F
:105AC00029460848FEF70AFDE7E70020EEE700BF99
:105AD000845300208C5300201C4F0020104F0020C6
:105AE0000C540020C8530020034B1B680360034B79
:105AF0001B684360704700BFC0530020085400205B
:105B0000F8B5C8B10C460546F9B1FEF78BFD1B4B45
